S02700004F6E2D64656D616E645F547261666669635F6C696768745F636F6E74726F6C2E73726563B5
S11300000C942A000C943C000C943C000C943C008E
S11300100C943C000C943C000C943C000C943C006C
S11300200C943C000C943C000C943C000C943C005C
S11300300C943C000C943C000C943C000C943C004C
S11300400C943C000C943C000C943C000C943C003C
S11300500C943C0011241FBECFE5D8E0DEBFCDBF19
S113006020E0A0E6B0E001C01D92A136B207E1F79E
S11300700E94F2000C945C040C94000060E080E0A8
S11300800E94E30061E080E00E94E30062E080E01F
S11300900E94E30060E081E00E94E30061E081E00F
S11300A00E94E30062E081E00E94E30062E083E0FA
S11300B00E94DF000E9453020E9458020E944B02D9
S11300C0089581E08093600061E00E94EF0061E0A8
S11300D080E00E94EF0088EE93E00E945C0261E001
S11300E080E00E94EF0061E081E00E94EF0088EE72
S11300F093E00E945C0261E081E00E94EF0061E015
S113010080E00E94EF0088EE93E00E945C0261E0D0
S113011080E00E94EF0061E081E00E94EF0088EE41
S113012093E00E945C0261E081E00E94EF0061E0E4
S113013080E00E94EF0088EE93E00E945C0210923F
S11301406000089562E081E00E94E70060E080E0E2
S11301500E94E70088E893E10E945C0260E080E08E
S11301600E94EB0062E081E00E94EB000E946100CB
S113017061E080E00E94EB0061E081E00E94EB001E
S113018060E081E00E94E70062E080E00E94E70016
S113019088E893E10E945C0262E080E00E94EB0048
S11301A060E081E00E94EB000E94610061E080E079
S11301B00E94EB0061E081E00E94EB00089540E0C2
S11301C00E94F700089541E00E94F700089541E07D
S11301D00E948101089540E00E94810108950E94D7
S11301E00B0208950E943E000E94A200FDCF8130C0
S11301F041F138F0823009F444C0833009F461C01D
S11302000895413071F42AB33BB381E090E002C019
S1130210880F991F6A95E2F7822B932B9BBB8ABBAD
S113022008952AB33BB381E090E002C0880F991F80
S11302306A95E2F780959095822393239BBB8ABBB2
S11302400895413071F427B338B381E090E002C0DF
S1130250880F991F6A95E2F7822B932B98BB87BB73
S1130260089527B338B381E090E002C0880F991F46
S11302706A95E2F7809590958223932398BB87BB78
S11302800895413071F424B335B381E090E002C0A5
S1130290880F991F6A95E2F7822B932B95BB84BB39
S11302A0089524B335B381E090E002C0880F991F0C
S11302B06A95E2F7809590958223932395BB84BB3E
S11302C00895413071F421B332B381E090E002C06B
S11302D0880F991F6A95E2F7822B932B92BB81BBFF
S11302E0089521B332B381E090E002C0880F991FD2
S11302F06A95E2F7809590958223932392BB81BB04
S11303000895813041F138F0823009F444C08330DB
S113031009F461C00895413071F42BB33CB381E01A
S113032090E002C0880F991F6A95E2F7822B932B05
S11303309CBB8BBB08952BB33CB381E090E002C01F
S1130340880F991F6A95E2F78095909582239323ED
S11303509CBB8BBB0895413071F428B339B381E061
S113036090E002C0880F991F6A95E2F7822B932BC5
S113037099BB88BB089528B339B381E090E002C0EB
S1130380880F991F6A95E2F78095909582239323AD
S113039099BB88BB0895413071F425B336B381E02D
S11303A090E002C0880F991F6A95E2F7822B932B85
S11303B096BB85BB089525B336B381E090E002C0B7
S11303C0880F991F6A95E2F780959095822393236D
S11303D096BB85BB0895413071F422B333B381E0F9
S11303E090E002C0880F991F6A95E2F7822B932B45
S11303F093BB82BB089522B333B381E090E002C083
S1130400880F991F6A95E2F780959095822393232C
S113041093BB82BB08958130A1F028F08230F9F0BB
S1130420833059F108952BB33CB381E090E002C0CE
S1130430880F991F6A95E2F7822793279CBB8BBB91
S1130440089528B339B381E090E002C0880F991F62
S11304506A95E2F78227932799BB88BB089525B351
S113046036B381E090E002C0880F991F6A95E2F7E5
S11304708227932796BB85BB089522B333B381E0CB
S113048090E002C0880F991F6A95E2F782279327AC
S113049093BB82BB0895789485B7836085BF8BB77F
S11304A080648BBF089583B783BF82B782BF0895EA
S11304B083B7856083BF0895CF92DF92EF92FF9256
S11304C00F931F93CF93DF938C01BC01990F880B7B
S11304D0990B0E94F9026B017C0120E030E040E8B6
S11304E053E40E94C3028823DCF001151140D9F0C3
S11304F020E030E040E853E4C701B6010E94C203A3
S113050018169CF420E030E040E85BE3C701B60134
S11305100E94C7030E94AC020E94C802EB0105C0FE
S1130520C1E0D0E002C0C1E0D0E020E030E008C08B
S113053008B600FEFDCF88B7816088BF2F5F3F4FAC
S11305402C173D07A8F3DF91CF911F910F91FF90D6
S1130550EF90DF90CF9008950E94A30390F09F370F
S113056048F4911116F40C94BC0360E070E080E848
S11305709FE3089526F01B16611D711D811D0C94C7
S113058058030C9473030E94340308F481E0089523
S11305900E94890388F09F5798F0B92F9927B75183
S11305A0B0F0E1F0660F771F881F991F1AF0BA9513
S11305B0C9F714C0B13091F00E94BB03B1E00895B3
S11305C00C94BB03672F782F8827B85F39F0B93FA5
S11305D0CCF3869577956795B395D9F73EF49095C6
S11305E08095709561957F4F8F4F9F4F0895E89444
S11305F009C097FB3EF490958095709561957F4F67
S11306008F4F9F4F9923A9F0F92F96E9BB27939514
S1130610F695879577956795B795F111F8CFFAF424
S1130620BB0F11F460FF1BC06F5F7F4F8F4F9F4F55
S113063016C0882311F096E911C0772321F09EE8B3
S1130640872F762F05C0662371F096E8862F70E019
S113065060E02AF09A95660F771F881FDAF7880FF3
S11306609695879597F90895990F0008550FAA0B49
S1130670E0E8FEEF16161706E807F907C0F01216B1
S11306801306E407F50798F0621B730B840B950BB4
S113069039F40A2661F0232B242B252B21F4089509
S11306A00A2609F4A140A6958FEF811D811D0895A6
S11306B0882371F4772321F09850872B762F07C075
S11306C0662311F499270DC09051862B70E060E0E9
S11306D02AF09A95660F771F881FDAF7880F969588
S11306E0879597F908959F3F31F0915020F48795AD
S11306F077956795B795880F911D9695879597F986
S1130700089557FD9058440F551F59F05F3F71F0FD
S11307104795880F97FB991F61F09F3F79F0879564
S11307200895121613061406551FF2CF4695F1DFED
S113073008C0161617061806991FF1CF869571057D
S11307406105089408950E948903A0F0BEE7B917D3
S113075088F4BB279F3860F41616B11D672F782FD5
S11307608827985FF7CF869577956795B11D939500
S11307709639C8F30895E894BB2766277727CB01F9
S113078097F908950E94340308F48FEF08950E94A6
S1130790DA030C944B040E943D0438F00E94440494
S11307A020F0952311F00C9434040C943A04112491
S11307B00C94BC030E94810370F3959FC1F3950FC1
S11307C050E0551F629FF001729FBB27F00DB11DD1
S11307D0639FAA27F00DB11DAA1F649F6627B00D61
S11307E0A11D661F829F2227B00DA11D621F739F4A
S11307F0B00DA11D621F839FA00D611D221F749F58
S11308003327A00D611D231F849F600D211D822F9E
S1130810762F6A2F11249F5750409AF0F1F08823C5
S11308204AF0EE0FFF1FBB1F661F771F881F9150F2
S11308305040A9F79E3F510580F00C9434040C9469
S1130840BC035F3FE4F3983ED4F3869577956795B0
S1130850B795F795E7959F5FC1F7FE2B880F911D1C
S11308609695879597F9089597F99F6780E870E0C2
S113087060E008959FEF80EC089500240A94161612
S1130880170618060906089500240A94121613067A
S1130890140605060895092E0394000C11F4882308
S11308A052F0BB0F40F4BF2B11F460FF04C06F5F24
S10F08B07F4F8F4F9F4F0895F894FFCFA7
S9030000FC
